V00479010601080222970100053354RIVAS  HERNANDEZ  GIOVANNI  JESUS  000000000018000
V00712587101080222940200300685VIDARTE JOSE DAVID                 000000000018000
V00708357701080222960100053427TORRES CASADIEGO FRANCISCO  JAVIER 000000000018000
V00712757601080222980100053443GONZALEZ GARBOZA JULISSA LEONOR    000000000018000
V00389613701080125740100088037NARZA MORALES AUGUSTO RAMON        000000000018000
V00718156101080081130100180083ROMERO ORDOÑEZ CARLOS RAFAEL       000000000018000
V00817118301080222920100053575MIRABAL CHINCHILLA CARMEN VIOLETA  000000000018000
V01345537101080222910100087887BARRADA SCOTT ALEXANDRA            000000000018000
V01050260301080222950100061276TIRADO PERDOMO LILIANA DAMELYS     000000000017400
V00743406801082405210100039859RODRIGUEZ FREITES MARIALFRED       000000000018000
V01231971001080222910100053648MUJICA ALZURUT ANGELICA M.         000000000017400
V00855492701080222970100053435VILLARROEL REYES LUIS HUMBERTO     000000000018000