V00647955101080222950200299903GONZALEZ ALEJANDRA                 000000000011000
V01946853701080081141500008278OSCAR GAMBOA                       000000000013625
V00413238301080222910100052404CORONEL CARLOS                     000000000016000
V01359704701080222900100052145MARTINEZ GILBERTO                  000000000018000
V00446368001080222980100156250GUEVARA RAMÓN EMILIO               000000000018000
V01550484501080222990100200934IRISMAR  PEROZO                    000000000004000
V02038667401080222920100107179JOAQUIN EMILIO MARTINEZ TALLET     000000000005000
V01338058901080222930100171004LEONARDO  BOLIVAR MEDINA           000000000018000
V00383193001080222930100073509LOAIZA MARICELA                    000000000012000
V00392351401080222930100052420PEREZ FEO MIRIAM                   000000000018000
V00508975101080222910100052838BRAVO RAMON                        000000000018000
V01597947201080222970100052382SERGET SUSANA                      000000000018000
V00436908801080081140100180172CHAVEZ ALI                         000000000011625
V00969333701080081110100179999KROHN ANITA                        000000000011625
V00316755801080081190100179964MACHADO OTILIO                     000000000018000
V00526690801080081110100179980OSORIO SAMUEL                      000000000013042
V01680274001080125700100087952MENDEZ EDWIN                       000000000002250
V01484901501080125710100157934VILLEGAS HUGO                      000000000009250
V00746945201082405200100039689SIPLENKO ANASTACIA                 000000000018000
V00329052501082405270100039735LINARES ANGEL                      000000000008000
V01658527901080061710100217662SIVIRA JACKSON                     000000000008000
V02466962201080081100100180040BIBI FAREDA                        000000000017625
V01417667301082405250100202644WAIBER  FLORES                     000000000008000
v00732083701082405210100039867PARRA WILMER                       000000000014000
V00706313801080222980100052390GRIPPI CARMEN                      000000000004000